:108000000000000000000000FFFF0000FFFF000074
:10801000314000803C4012400D433E401200B012FF
:1080200042833C4000403D408E830D9C04243E40F2
:108030001200B0120A83B01272830C43B012C681D0
:108040003440048035400480264330406C80344006
:10805000048035400480264330406C8034400480E6
:10806000354004803640FEFF30406C800594052486
:1080700027440456A7121040F4FF304130413041EC
:108080003C408E833C908E8307243D4000000D933E
:1080900003243C408E838D1230410A123A408E8375
:1080A0003A808E830A110C4AB01256820C5A0D4C3B
:1080B0000D110D9307243E4000000E9303243C4015
:1080C0008E838E123A4130410A120912C293124035
:1080D00017203A400E803A800C800A113A533940FA
:1080E0000C801C4214400C9A0D28B01280803D4038
:1080F00000000D9303243C4000808D12D2431240B7
:10810000304050821C53824C14400C5C0C592C4C57
:108110008C123040E2803E4000000E9305243D402A
:1081200016403C4000808E12B0129A8030410D12F1
:108130000C123C4090018C4300007C409000FC40BD
:108140000F0000003D4000603C4002402D4D8C4D32
:1081500000003D4002603C4004402D4D8C4D00002D
:108160003D4004603C4006402D4D8C4D00003D409C
:1081700006603C4008402D4D8C4D00003D4008609D
:108180003C400A402D4D8C4D00003D400A603C4073
:108190000C402D4D8C4D00003D400C603C400E408D
:1081A0002D4D8C4D00003D400E603C4010402D4D4B
:1081B0008C4D00007C409000FC40F0FF0000034329
:1081C0003C413D41001332D203433C4090019C436B
:1081D00000001C4202400C930324B240AA0002405B
:1081E0001C4204400C930324B240BB0004401C42D8
:1081F00006400C930324B240CC0006401C420840C9
:108200000C930324B240DD0008401C420A400C934A
:108210000324B240EE000A401C420C400C9303249D
:10822000B240FF000C401C420E400C930324B240AD
:1082300055000E401C4210400C930324B2406600CF
:108240001040304042823441354136413741384157
:1082500039413A41304112C30C1012C30C1012C301
:108260000C1012C30C1012C30C1012C30C1012C34A
:108270000C1012C30C1012C30C1012C30C1012C33A
:108280000C1012C30C1012C30C1012C30C1012C32A
:108290000C1030413D5312C30C100D93FB233041A1
:1082A00012C30D100C1012C30D100C1012C30D10C0
:1082B0000C1012C30D100C1012C30D100C1012C3B1
:1082C0000D100C1012C30D100C1012C30D100C1059
:1082D00012C30D100C1012C30D100C1012C30D1090
:1082E0000C1012C30D100C1012C30D100C1012C381
:1082F0000D100C1012C30D100C1030413E5312C360
:108300000D100C100E93FA2330410D9C0A280F4CCF
:108310000E5C0E9F0D24EF4D00001F531D53304087
:1083200012830F4D0F5E0C9FF22F3E533E930120A0
:1083300030410B4C0B5E0F4D0F5EEB4F0000304099
:108340002A830F4C0E5C0F9E01203041CF4D000060
:108350001F533040468330410A123A4008802C4A6D
:108360003C9302203A4130418C123A50FEFF30409B
:108370005E83B0121681B0125883B0124E80B012D4
:0E83800040803041B0125C80B012C8803041A5
:10838E0000000100070007000100010001000100CC
:02839E000100DC
:02FFE8002E8168
:02FFFE00108071
:040000030000801069
:00000001FF
