:108000000000000000000000FFFF0000FFFF000074
:10801000314000803C4014400D433E401200B012FD
:1080200010843C4000403D405C840D9C04243E4054
:108030001400B012D883B01240840C43B0122682D0
:108040003440048035400480264330406C80344006
:10805000048035400480264330406C8034400480E6
:10806000354004803640FEFF30406C800594052486
:1080700027440456A7121040F4FF304130413041EC
:108080003C405C843C905C8407243D4000000D93A0
:1080900003243C405C848D1230410A123A405C84D7
:1080A0003A805C840A110C4AB01224830C5A0D4C9D
:1080B0000D110D9307243E4000000E9303243C4015
:1080C0005C848E123A4130410A120912C293144064
:1080D00017203A400E803A800C800A113A533940FA
:1080E0000C801C4216400C9A0D28B01280803D4036
:1080F00000000D9303243C4000808D12D2431440B5
:1081000030401E831C53824C16400C5C0C592C4C86
:108110008C123040E2803E4000000E9305243D402A
:1081200018403C4000808E12B0129A8030410C12F0
:108130007C409000FC400F00000082412060B25063
:1081400006002060924104002260924102002460F7
:10815000824D2660A241286082442A6082452C60BC
:1081600082462E60824730608248326082493460A5
:10817000824A3660824B3860824E3E60824F406059
:1081800092429201106092429401126092429601D2
:10819000146092429801166092429A0118609242CD
:1081A0009C011A6092429E011C60924290011E60E6
:1081B000B2F00E001E6012111E6092430E603C4031
:1081C00010602D4C9D42006000003C4012602D4C20
:1081D0009D42026000003C4014602D4C9D420460B2
:1081E00000003C4016602D4C9D42066000003C4063
:1081F00018602D4C9D42086000003C401A602D4CD8
:108200009D420A6000003C401C602D4C9D420C6069
:108210000000924390017C409000FC40F0FF000081
:1082200003433C41001332D203433C4090019C4342
:1082300000001C4202400C930224924302401C4264
:1082400004400C930224A24304401C4206400C93B9
:108250000324B240030006401C4208400C93022451
:10826000A24208401C420A400C930324B24005007D
:108270000A401C420C400C930324B24006000C4000
:108280001C420E400C930324B24007000E401C42D7
:1082900010400C930224B24210401C4212400C9336
:1082A0000324B240AA0012401C4202400C93022454
:1082B000924302401C4204400C930224A243044017
:1082C0001C4206400C930324B240030006401C42AB
:1082D00008400C930224A24208401C420A400C931E
:1082E0000324B24005000A401C420C400C930324B6
:1082F000B24006000C401C420E400C930324B240D6
:1083000007000E401C4210400C930224B242104061
:10831000304010833441354136413741384139418D
:108320003A41304112C30C1012C30C1012C30C108E
:1083300012C30C1012C30C1012C30C1012C30C1079
:1083400012C30C1012C30C1012C30C1012C30C1069
:1083500012C30C1012C30C1012C30C1012C30C1059
:1083600030413D5312C30C100D93FB23304112C317
:108370000D100C1012C30D100C1012C30D100C10A8
:1083800012C30D100C1012C30D100C1012C30D10DF
:108390000C1012C30D100C1012C30D100C1012C3D0
:1083A0000D100C1012C30D100C1012C30D100C1078
:1083B00012C30D100C1012C30D100C1012C30D10AF
:1083C0000C1012C30D100C1030413E5312C30D108F
:1083D0000C100E93FA2330410D9C0A280F4C0E5CB2
:1083E0000E9F0D24EF4D00001F531D533040E083BE
:1083F0000F4D0F5E0C9FF22F3E533E9301203041F4
:108400000B4C0B5E0F4D0F5EEB4F00003040F883BE
:108410000F4C0E5C0F9E01203041CF4D00001F53CA
:108420003040148430410A123A4008802C4A3C9370
:1084300002203A4130418C123A50FEFF30402C84E9
:10844000B0121681B0122684B0124E80B012408055
:0C8450003041B0125C80B012C880304196
:10845C0000000200070007000100010001000100FC
:04846C00010001000A
:02FFE8002E8168
:02FFFE00108071
:040000030000801069
:00000001FF
