:108000000000000000000000FFFF0000FFFF000074
:10801000314000803C4014400D433E401200B012FD
:1080200086853C4000403D40D2850D9C04243E4066
:108030001400B0124E85B012B6850C43B0128A837C
:108040003440048035400480264330406C80344006
:10805000048035400480264330406C8034400480E6
:10806000354004803640FEFF30406C800594052486
:1080700027440456A7121040F4FF304130413041EC
:108080003C40D2853C90D28507243D4000000D93B2
:1080900003243C40D2858D1230410A123A40D285E9
:1080A0003A80D2850A110C4AB0129A840C5A0D4CAF
:1080B0000D110D9307243E4000000E9303243C4015
:1080C000D2858E123A4130410A120912C2931440ED
:1080D00017203A400E803A800C800A113A533940FA
:1080E0000C801C4216400C9A0D28B01280803D4036
:1080F00000000D9303243C4000808D12D2431440B5
:10810000304094841C53824C16400C5C0C592C4C0F
:108110008C123040E2803E4000000E9305243D402A
:1081200018403C4000808E12B0129A8030410D12EF
:108130000C1221837C409000FC400F0000003C406A
:1081400090012C4C12C30C100D4C7DF00700814D9A
:1081500000002C413C90030037247D4003000D9C1F
:1081600009381C9315245D430D9C1C380C93FE2488
:1081700030406E833C90050063243C9005003E38FF
:108180003C90060087243C900700B62430406E8364
:108190003C4000602D4C3C4092012C4C8C4D00002A
:1081A00030406E833C4000602D4C3C4092012C4C92
:1081B0008C4D00003C4002602D4C3C4094012C4C06
:1081C0008C4D000030406E833C4000602D4C3C40A4
:1081D00092012C4C8C4D00003C4002602D4C3C40E8
:1081E00094012C4C8C4D00003C4004602D4C3C40D4
:1081F00096012C4C8C4D000030406E833C4000605A
:108200002D4C3C4092012C4C8C4D00003C400260B7
:108210002D4C3C4094012C4C8C4D00003C400460A3
:108220002D4C3C4096012C4C8C4D00003C4006608F
:108230002D4C3C4098012C4C8C4D000030406E83FE
:108240003C4000602D4C3C4092012C4C8C4D000079
:108250003C4002602D4C3C4094012C4C8C4D000065
:108260003C4004602D4C3C4096012C4C8C4D000051
:108270003C4006602D4C3C4098012C4C8C4D00003D
:108280003C4008602D4C3C409A012C4C8C4D000029
:1082900030406E833C4000602D4C3C4092012C4CA1
:1082A0008C4D00003C4002602D4C3C4094012C4C15
:1082B0008C4D00003C4004602D4C3C4096012C4C01
:1082C0008C4D00003C4006602D4C3C4098012C4CED
:1082D0008C4D00003C4008602D4C3C409A012C4CD9
:1082E0008C4D00003C400A602D4C3C409C012C4CC5
:1082F0008C4D000030406E833C4000602D4C3C4073
:1083000092012C4C8C4D00003C4002602D4C3C40B6
:1083100094012C4C8C4D00003C4004602D4C3C40A2
:1083200096012C4C8C4D00003C4006602D4C3C408E
:1083300098012C4C8C4D00003C4008602D4C3C407A
:108340009A012C4C8C4D00003C400A602D4C3C4066
:108350009C012C4C8C4D00003C400C602D4C3C4052
:108360009E012C4C8C4D000030406E8303437C40BA
:108370009000FC40F0FF00003C4090019C43000056
:10838000034321533C413D4100133C402001BC408C
:10839000805A000032D203433C4090019C430000CD
:1083A0001C4202400C930224924302401C420440AF
:1083B0000C930224924304401C4206400C93032475
:1083C000B240CC0006401C4208400C930324B2404B
:1083D000DD0008401C420A400C930324B240EE002A
:1083E0000A401C420C400C930324B240FF000C4096
:1083F0001C420E400C930324B24055000E401C4218
:1084000010400C930324B240AA0010401C420240CA
:108410000C930224924302401C4204400C93022419
:10842000924304401C4206400C930324B240CC000B
:1084300006401C4208400C930324B240DD00084073
:108440001C420A400C930324B240EE000A401C4236
:108450000C400C930324B240FF000C401C420E4021
:108460000C930324B24055000E401C4210400C9364
:108470000324B240AA0010401C4212400C93032473
:10848000B240AA0012403040868434413541364122
:108490003741384139413A41304112C30C1012C3BF
:1084A0000C1012C30C1012C30C1012C30C1012C308
:1084B0000C1012C30C1012C30C1012C30C1012C3F8
:1084C0000C1012C30C1012C30C1012C30C1012C3E8
:1084D0000C1012C30C1030413D5312C30C100D93FD
:1084E000FB23304112C30D100C1012C30D100C10E1
:1084F00012C30D100C1012C30D100C1012C30D106E
:108500000C1012C30D100C1012C30D100C1012C35E
:108510000D100C1012C30D100C1012C30D100C1006
:1085200012C30D100C1012C30D100C1012C30D103D
:108530000C1012C30D100C1012C30D100C10304192
:108540003E5312C30D100C100E93FA2330410D9CB4
:108550000A280F4C0E5C0E9F0D24EF4D00001F5398
:108560001D53304056850F4D0F5E0C9FF22F3E532A
:108570003E93012030410B4C0B5E0F4D0F5EEB4FD5
:10858000000030406E850F4C0E5C0F9E0120304184
:10859000CF4D00001F5330408A8530410A123A40C7
:1085A00008802C4A3C9302203A4130418C123A50C8
:1085B000FEFF3040A285B0121681B0129C85B01229
:1085C0004E80B01240803041B0125C80B012C88042
:0285D000304138
:1085D2000000010007000700010001000100010086
:0485E2000100010093
:02FFE8002E8168
:02FFFE00108071
:040000030000801069
:00000001FF
