:108000000000000000000000FFFF0000FFFF000074
:10801000314000803C4014400D433E401200B012FD
:1080200012843C4000403D405E840D9C04243E4050
:108030001400B012DA83B01242840C43B012828270
:108040003440048035400480264330406C80344006
:10805000048035400480264330406C8034400480E6
:10806000354004803640FEFF30406C800594052486
:1080700027440456A7121040F4FF304130413041EC
:108080003C405E843C905E8407243D4000000D939C
:1080900003243C405E848D1230410A123A405E84D3
:1080A0003A805E840A110C4AB01226830C5A0D4C99
:1080B0000D110D9307243E4000000E9303243C4015
:1080C0005E848E123A4130410A120912C293144062
:1080D00017203A400E803A800C800A113A533940FA
:1080E0000C801C4216400C9A0D28B01280803D4036
:1080F00000000D9303243C4000808D12D2431440B5
:10810000304020831C53824C16400C5C0C592C4C84
:108110008C123040E2803E4000000E9305243D402A
:1081200018403C4000808E12B0129A8030410C12F0
:108130007C409000FC401000000082412060B25062
:1081400006002060924104002260924102002460F7
:10815000824D2660A241286082442A6082452C60BC
:1081600082462E60824730608248326082493460A5
:10817000824A3660824B3860824E3E60824F406059
:108180007C409000FC40110000001E4290010E1146
:10819000C24E1F600F4E7C409000FC401200000059
:1081A0000E930F243C4092013D401060BD4C0000F6
:1081B0002D531E830E93FA237C409000FC40130045
:1081C00000001C4220603E40FE7F3D40FE6F2C833D
:1081D0000C9E0624AD4E00002D832E833040D081AE
:1081E0007C409000FC4014000000D2431E607C40A4
:1081F0009000FC40150000000F930A243C401060E2
:108200003E4000603D4CBD4E00001F830F93FA239B
:10821000E2431E60924390011D4226601E423E6072
:108220001F4240607C409000FC40F0FF0000034390
:108230003C41001331804200B140AA00400081431C
:108240004000304062821C4140000C5C7D40420096
:108250000D510C5D3C50BEFFBC40CAFE0000915366
:1082600040007C401E001C914000ED371C42104035
:108270000C930324B24007001040034331504200E6
:108280003041034332D203433C4090019C43000001
:108290005C4202400C930324F240AAFF02405C427D
:1082A00003400C930324F240BBFF03405C420340B5
:1082B0007C90BBFF05207C409000FC40AAFF0000A2
:1082C0001C4204400C930324B240030004401C42AF
:1082D00006400C930224A24206401C4208400C9324
:1082E0000324B240050008401C420A400C930324BA
:1082F000B24006000A401C420C400C930324B240DA
:1083000007000C401C420E400C930324B2400700AF
:108310000E403040128334413541364137413841B7
:1083200039413A41304112C30C1012C30C1012C330
:108330000C1012C30C1012C30C1012C30C1012C379
:108340000C1012C30C1012C30C1012C30C1012C369
:108350000C1012C30C1012C30C1012C30C1012C359
:108360000C1030413D5312C30C100D93FB233041D0
:1083700012C30D100C1012C30D100C1012C30D10EF
:108380000C1012C30D100C1012C30D100C1012C3E0
:108390000D100C1012C30D100C1012C30D100C1088
:1083A00012C30D100C1012C30D100C1012C30D10BF
:1083B0000C1012C30D100C1012C30D100C1012C3B0
:1083C0000D100C1012C30D100C1030413E5312C38F
:1083D0000D100C100E93FA2330410D9C0A280F4CFF
:1083E0000E5C0E9F0D24EF4D00001F531D533040B7
:1083F000E2830F4D0F5E0C9FF22F3E533E93012000
:1084000030410B4C0B5E0F4D0F5EEB4F00003040C8
:10841000FA830F4C0E5C0F9E01203041CF4D0000BF
:108420001F533040168430410A123A4008802C4ACB
:108430003C9302203A4130418C123A50FEFF3040CA
:108440002E84B0121681B0122884B0124E80B01261
:0E84500040803041B0125C80B012C8803041D4
:10845E0000000207070001000100010001000100F9
:04846E000100010008
:02FFE8002E8168
:02FFFE00108071
:040000030000801069
:00000001FF
