:1080000073746174733A207320002028002529209E
:108010006D20002529002073756D2F746F7420006A
:108020002F002056002058000D0A00747261696EFE
:108030003A20646F6E653A206D6E200020736420D4
:1080400000546869732069732074686520656E64E4
:10805000206F66207468652041522062656E6368F7
:108060006D61726B0A0D00000440430000000000C7
:0C80700000000000FFFF0000FFFF000008
:10807C00314000808243A002E29374601724F29096
:10808C00030075600D24F29003007460D820E29315
:10809C00756016241C4212603D40FE6F30405A81C0
:1080AC001C4242603D40FE6B30405A813A40306089
:1080BC001C4212603D40FE6F1F422E603040DC803F
:1080CC003A4060601C4242603D40FE6B1F425E6065
:1080DC000F931D243E400060394A0B493BF0008051
:1080EC003B9000800724B94E00001F830F93F423AC
:1080FC0030401A8139F0FF7F0B491BF30EDBE94E40
:10810C0000003EF0FEFF2E531F830F93E523829356
:10811C00FE6B12241D42FE6B1C42FC6B0E4D3E800E
:10812C0000103A40FA6BAE4A00000C9D05242A83DD
:10813C002D832E8330403281E29374600524B2404B
:10814C000103746030405A81B240030174603840BE
:10815C002001B840805A000078408200B8420000EC
:10816C0078408000D843000038407201B840741346
:10817C00000038406001B840160200003E40FE7F0F
:10818C003E90A07F05248E4300002E8330408C81CE
:10819C00F290030075602924144216601542186091
:1081AC0016421A6017421C6018421E601942206069
:1081BC001A4222601B4224601C4226601D42286029
:1081CC001E422A601F422C6011421260124214603F
:1081DC0092427660B20292427660B402924276602B
:1081EC00B6029243A002104210601442466015423F
:1081FC00486016424A6017424C6018424E60194261
:10820C0050601A4252601B4254601C4256601D4220
:10821C0058601E425A601F425C601142426012421A
:10822C00446092427860B20292427860B402924208
:10823C007860B6029243A0021042406003433C4077
:10824C007C400D433E409A00B01202983C400040E6
:10825C003D404C980D9C04243E407C00B012CA97C3
:10826C00B01230980C43B0126E8F34407080354091
:10827C00708026433040A28234407080354070803C
:10828C0026433040A28234407080354070803640A6
:10829C00FEFF3040A2820594052427440456A71201
:1082AC001040F4FF30413C404C983C904C980724D3
:1082BC003D4000000D9303243C404C988D123041FE
:1082CC000A123A404C983A804C980A110C4AB01257
:1082DC0004950C5A0D4C0D110D9307243E400000D3
:1082EC000E9303243C404C988E123A4130410A12B2
:1082FC000912C2937C4017203A407A803A807880E9
:10830C000A113A53394078801C427E400C9A0D2851
:10831C00B012B2823D4000000D9303243C406C80AF
:10832C008D12D2437C403040FE941C53824C7E40D4
:10833C000C5C0C592C4C8C12304014833E400000C9
:10834C000E9305243D4080403C406C808E12B01250
:10835C00CC8230410A1209120812071206120512B9
:10836C0031801E00814C1000814D1200B1431C0065
:10837C0081431A001C411C00054C46431C411A0049
:10838C000E4C4F430C450C5E814C0C000C460C6F94
:10839C00814C0E001C410C001D410E0012C30D102F
:1083AC000C10814C1800814314008143160030409E
:1083BC004A841C411C00094C4A431C411A00074CBE
:1083CC0048430C490C57814C08000C4A0C68814CF2
:1083DC000A001C4108001D410A0012C30D100C10AC
:1083EC00814C18001C411800814C0400814306008C
:1083FC001C411800814C0000814302002E411F419A
:10840C0002001C4104001D410600B012CC95814CA9
:10841C001400814D160091911200160008289191BC
:10842C00160012000920919110001400052C9141A6
:10843C0018001A0030404A84914118001C00919198
:10844C0010001400042091911200160007241D4105
:10845C001C001D811A005C430C9DAB2B1C411800A9
:10846C0031501E003040F6942182814C0000914224
:10847C00024002001D4102000C4D0C5C0C5C0C5CBB
:10848C000C5C0C5D7D405500B012EC944D4C2C41B5
:10849C00CC4D00003D4021011C410200B012B895AA
:1084AC007D405500B012EC944D4C2C41CC4D01004C
:1084BC003D4031131C410200B012B8957D4055006F
:1084CC00B012EC944D4C2C41CC4D02009153020057
:1084DC009241020002400343215230413182814CCF
:1084EC00000081430600304026850C413C500300BF
:1084FC00B01274841D4106000C4D1C53814C0600B7
:10850C000C4D0C5C0C5D2C51DC4103000000DC417B
:10851C0004000100DC41050002006C431C910600C4
:10852C00E42F03433152304131800600814C00006E
:10853C0081430400814304003040FA851D4104004E
:10854C000C4D0C5C0C5D2D410D5C814D02001C41F1
:10855C0002006C4C7D4009004D9C102C1C4102000B
:10856C005C4C01007D4009004D9C082C1C41020014
:10857C005C4C02007D4009004D9C37281C410200D8
:10858C006C4C7D400A004D9C052C1C4102006C4C2F
:10859C003040A2854C431D410200CD4C00001C41D3
:1085AC0002005C4C01007D400A004D9C062C1C41D5
:1085BC0002005C4C01003040C8854C431D41020058
:1085CC00CD4C01001C4102005C4C02007D400A00B5
:1085DC004D9C062C1C4102005C4C02003040EE8588
:1085EC004C431D410200CD4C0200915304006C43DE
:1085FC001C910400A32F03433150060030410A1292
:10860C00091208120712061231801000814C020068
:10861C00814D0000C14309005C410900C14C0800B8
:10862C005C410800C14C0700C14306005C410600D8
:10863C00C14C05005C410500C14C040081430E0097
:10864C003040AC865E4107001D410E000C4D0C5CA9
:10865C000C5D2C516C4C4C5E3CF0FF00C14C070087
:10866C005E4108001D410E000C4D0C5C0C5D2C5144
:10867C005C4C01004C5E3CF0FF00C14C08005E41BC
:10868C0009001D410E000C4D0C5C0C5D2C515C4C1A
:10869C0002004C5E3CF0FF00C14C090091530E00EF
:1086AC006C431C910E00CE375C410700B01238951C
:1086BC003CF0FF00C14C07005C410800B01238953B
:1086CC003CF0FF00C14C08005C410900B012389529
:1086DC003CF0FF00C14C090081430E003040FE8786
:1086EC005E4104001D410E000C4D0C5C0C5D2C51C8
:1086FC006C4C5D4107004D9C0D2C1D410E000C4D2A
:10870C000C5C0C5D2C516D4C5C4107004D8C4C4D40
:10871C00304038875F4107001D410E000C4D0C5C4A
:10872C000C5D2C516C4C4D4F4D8C4C4D4C5E3CF0BB
:10873C00FF00C14C04005E4105001D410E000C4DB4
:10874C000C5C0C5D2C515C4C01005D4108004D9C97
:10875C000E2C1D410E000C4D0C5C0C5D2C515D4C17
:10876C0001005C4108004D8C4C4D304094875F41BA
:10877C0008001D410E000C4D0C5C0C5D2C515C4C2A
:10878C0001004D4F4D8C4C4D4C5E3CF0FF00C14CEC
:10879C0005005E4106001D410E000C4D0C5C0C5D8D
:1087AC002C515C4C02005D4109004D9C0E2C1D416E
:1087BC000E000C4D0C5C0C5D2C515D4C02005C41B0
:1087CC0009004D8C4C4D3040F0875F4109001D4134
:1087DC000E000C4D0C5C0C5D2C515C4C02004D4F92
:1087EC004D8C4C4D4C5E3CF0FF00C14C060091533F
:1087FC000E006C431C910E0073375C410400B012E8
:10880C0038953CF0FF00C14C04005C410500B012EF
:10881C0038953CF0FF00C14C05005C410600B012DD
:10882C0038953CF0FF00C14C06005C4107005D41EF
:10883C000700B012B895064C5C4108005D41080079
:10884C00B012B895065C5C4109005D410900B0129C
:10885C00B8950C56814C0C005C4104005D41040041
:10886C00B012B895064C5C4105005D410500B01294
:10887C00B895065C5C4106005D410600B012B895E7
:10888C000C56814C0A001C410C00074C48430C4709
:10889C000D48B01260830D4C1C4102008C4D000041
:1088AC001C410A00094C4A430C490D4AB012608322
:1088BC000D4C1C4102008C4D020003433150100042
:1088CC003040F89431801E00814C0200814D000034
:1088DC0081431C0081431A00814318003040648A94
:1088EC001C4118000C5C0C5C2D410D5C814D14007E
:1088FC001C4114002D4C1C4102002C4C0C9D0A2CCC
:10890C001C4114002E4C1C4102002D4C0C4E0C8DA5
:10891C00304030891C4102002E4C1C4114002D4C5F
:10892C000C4E0C8D814C1000814312001C41140024
:10893C001D4C02001C4102001C4C02000C9D0C2C16
:10894C001C4114001E4C02001C4102001D4C020074
:10895C000C4E0C8D304078891C4102001E4C0200DC
:10896C001C4114001D4C02000C4E0C8D814C0C0053
:10897C0081430E001C4118003C5010000C5C0C5C38
:10898C002D410D5C814D14001C4114002D4C1C41DB
:10899C0002002C4C0C9D0A2C1C4114002E4C1C412A
:1089AC0002002D4C0C4E0C8D3040C8891C4102002D
:1089BC002E4C1C4114002D4C0C4E0C8D814C08007F
:1089CC0081430A001C4114001D4C02001C41020092
:1089DC001C4C02000C9D0C2C1C4114001E4C020063
:1089EC001C4102001D4C02000C4E0C8D3040108AB4
:1089FC001C4102001E4C02001C4114001D4C0200C4
:108A0C000C4E0C8D814C0400814306009191120098
:108A1C000A00083891910A00120008209191100068
:108A2C000800042C91531C0030403C8A91531A00CE
:108A3C0091910E0006000838919106000E00082056
:108A4C0091910C000400042C91531C003040608A5E
:108A5C0091531A00915318007C400F001C91180080
:108A6C003F375C4391911C001A0001384C433CF099
:108A7C00FF00814C16001C41160031501E00304185
:108A8C002182814C0200814D00001C4102002C4CC3
:108A9C000D4C1D531C4102008C4D00002C410C93BD
:108AAC0010241C9302243040E48A1C4102001C4C0C
:108ABC0002000D4C1D531C4102008C4D0200304035
:108ACC00E48A1C4102001C4C04000D4C1D531C413B
:108ADC0002008C4D04000343034321523041218397
:108AEC00814C00002C411C4C04007D406400B012F1
:108AFC00B8952D412D4DB012E494824C10412C416F
:108B0C001C4C02007D406400B012B8952D412D4DD7
:108B1C00B012E494824C12412C411D4C04002C41A7
:108B2C001C4C02000C5D824C8E403C400080B0120C
:108B3C00F2932C411C4C0400B01240933C400A8030
:108B4C00B012F2931C421041B01240933C400D8085
:108B5C00B012F2932C411C4C0200B01240933C40DA
:108B6C000A80B012F2931C421241B01240933C4066
:108B7C001380B012F2933C401680B012F2932C4149
:108B8C002C4CB01240933C402080B012F2931C420B
:108B9C008E40B01240932C412D4C1C428E400D9CAB
:108BAC000B201C428E403C90800006203C402280D2
:108BBC00B012F2933040CC8B3C402580B012F29333
:108BCC003C402880B012F293034321533041318052
:108BDC000600814304003040EE8B0C411C53B01254
:108BEC0074841C4104000D4C1D53814D04006D43D5
:108BFC000D9CF32F0343315006003041318012009D
:108C0C00814C0000B012DA8B814310003040588C3C
:108C1C000C413C500700B012E8840C413C5007005A
:108C2C00B01234850D413D5007000C412C53B0124D
:108C3C000A861C4110000C5C0C5C2C519C410200FF
:108C4C0000009C4104000200915310007C400F0076
:108C5C001C911000DD2F3C402B80B012F2931C4174
:108C6C000200B01240933C403C80B012F2931C4185
:108C7C000400B01240933C402880B012F29303439E
:108C8C0031501200304131801A00814C0000814378
:108C9C0010008143140081431200814318003040BE
:108CAC00F08C0C413C500700B012E8840C413C5055
:108CBC000700B01234850D413D5007000C412C5378
:108CCC00B0120A860C412C532D41B012D088814C25
:108CDC0016000C413C5010001D411600B0128C8A3D
:108CEC00915318007C407F001C911800DA2F0C4126
:108CFC003C501000B012EA8A034331501A00304144
:108D0C007C409000CC4300003C404180B012F29378
:108D1C004C43B012FA95034330412182814C000040
:108D2C001C4200401C53824C00401C4200406D42CF
:108D3C000D9C07283C900300112C1C931B283040E1
:108D4C00608D7D4006000D9C0D2C3C9007000E2480
:108D5C003040808DD143030030408A8DE1430300C5
:108D6C0030408A8DC143030030408A8DB0120C8D87
:108D7C0030408A8DF14003000300B012228DE19344
:108D8C0003000324D19303000A202C416C4CC19C9A
:108D9C0003000520F140030003003040B28D2C414C
:108DAC00DC41030000005C410300215230413C4097
:108DBC002001BC40805A0000034332D203437C4064
:108DCC008200BC4200007C408000DC4300003C4040
:108DDC00A0029C43000003433041B2402400D04029
:108DEC00B2401E00D240B2403800D440B24016000F
:108DFC00D640B2402800D840B2401E00DA40B24003
:108E0C003000DC40B2401E00DE40B2403600E04094
:108E1C00B2401400E240B2403200E440B2402200C2
:108E2C00E640B2403800E840B2401600EA40B2409A
:108E3C003A00EC40B2401800EE40B2402E00F04038
:108E4C00B2401E00F240B2403400F440B240140074
:108E5C00F640B2403200F840B2402200FA40B24034
:108E6C003800FC40B2401600FE40B24038000041D1
:108E7C00B24018000241B2402E000441B2401E0024
:108E8C000641B24034000841B24014000A41B240DD
:108E9C0032000C41B24022000E4103433041B2403B
:108EAC0038009040B24018009240B2402E009440DE
:108EBC00B2401E009640B24034009840B2401400BC
:108ECC009A40B24032009C40B24022009E40B240D8
:108EDC003800A040B2401600A240B2403600A44078
:108EEC00B2401800A640B2402E00A840B2401E006E
:108EFC00AA40B2403400AC40B2401400AE40B24084
:108F0C003000B040B2402200B240B2403800B44011
:108F1C00B2401600B640B2403600B840B24018001D
:108F2C00BA40B2402C00BC40B2401E00BE40B24021
:108F3C003200C040B2401400C240B2403000C440C5
:108F4C00B2402200C640B2403600C840B2401600C3
:108F5C00CA40B2403400CC40B2401800CE4003436B
:108F6C0030412182F14003000100B012BA8D3C4027
:108F7C007413B012B892924300407C409000FC43B2
:108F8C0000000C411C53B012268D814C02001C4178
:108F9C0002001C930C241C9310282C9302243040A8
:108FAC00D08F3C409040B012088C3040D08F3C4069
:108FBC00D040B012088C3040D08F3C409040B01262
:108FCC00928C034330408E8F824D7060824C726065
:108FDC00D293756006243C401060D24374603040DC
:108FEC00F28F3C4040609C41020000008293B8022A
:108FFC0003249C82B80200002C538C410000AC521C
:10900C0000002C53AC4100002C531D42A0023DF03B
:10901C003E003DD04000824DA0023DF0BF00824D8D
:10902C00A0028C4400002C538C4500002C538C4621
:10903C0000002C538C4700002C538C4800002C5300
:10904C008C4900002C538C4A00002C538C4B000094
:10905C002C539C42726000002C539C4270600000A8
:10906C002C538C4E00002C538C4F00002C531E4262
:10907C00A0020E11CC4E00000F4E2C530E93082460
:10908C003D40A202BC4D00002C531E830E93FA23CC
:10909C001C42B2023CF000803C9000800A241C422E
:1090AC004260D293756009241C421260D2937460A2
:1090BC0004241C42B2023CF0FF7FD293756004245E
:1090CC00824C76603040D890824C78608243FE6B44
:1090DC008243FC6BC293756006203D40FE6F3E40A0
:1090EC00FE7F30404A911E42B4021A427660D293FF
:1090FC00756002241A4278600E9A04200C9A272478
:10910C00304042910C9E23242E833D40FE6B8D4EAD
:10911C0000002D838D4A00002D830B4C0C9A0134DA
:10912C000B4AAD4E00000B9E04242D832E83304041
:10913C002E910C9A0C342E830D4E3D800010AD4EAA
:10914C0000000C9E04242D832E8330404A91D29330
:10915C0075600424D253746030406C91D2537560A6
:10916C000F9325243E4000603C406060E2937560A4
:10917C0002243C4030603D4C0B4D3BF000803B905A
:10918C0000800824AD4E00002E531F830F93F32351
:10919C003040BA913DF0FF7F0B4D1BF30EDBED4ED3
:1091AC0000003EF0FEFF2E531F830F93E4238293A7
:1091BC00FE6B12241D42FE6B1C42FC6B0E4D3E805E
:1091CC0000103A40FA6BAE4A00000C9D05242A832D
:1091DC002D832E833040D291E29375601A24B240D5
:1091EC00030174601A4222601B4224601C422660F8
:1091FC001D4228601E422A601F422C6092427660FB
:10920C00B20292427660B40292427660B60230406C
:10921C004E92B240010374601A4252601B42546079
:10922C001C4256601D4258601E425A601F425C60D0
:10923C0092427860B20292427860B40292427860B4
:10924C00B602824300608243026082430460824320
:10925C0006608243086082430A6082430C6082434A
:10926C000E608243A2028243A4028243A60282437E
:10927C00A8028243AA028243AC028243AE0282431A
:10928C00B0029243A002034300132183814C0000DF
:10929C003C406001BC402401000003433C40700191
:1092AC002C4C2C91FB2B0343215330412183814CBB
:1092BC0000003C407201AC410000A24114413C4012
:1092CC006001BC40160200000343215330410D12D3
:1092DC000C123C4060019C4300003C4072011D425A
:1092EC0014418C4D00003C406001BC401602000053
:1092FC003C40A0022D4C3C40A0023DD020008C4DA7
:10930C0000000343B1C0F00004003C413D41001398
:10931C002183C14C010003437C4081006C4C7CF2E6
:10932C000C93FA237C408400DC41010000004C4388
:10933C002153304131801800814C000081431600CC
:10934C008193000025347C402D00B0121C934C43BB
:10935C002C81814C000030409C932C417D400A00B4
:10936C00B012B2944D4C1C4116000E4C1E53814E43
:10937C0016007D5030004E4D0D412D530C5DCC4EE2
:10938C0000002C417D400A00B0126694814C000014
:10939C007C4009002C91E13B2C417D400A00B0122D
:1093AC00B2944D4C1C4116000E4C1E53814E1600AF
:1093BC007D5030004E4D0D412D530C5DCC4E0000B8
:1093CC003040E293B15316000C412C531C51160043
:1093DC006C4CB0121C934C431C911600F33B034392
:1093EC003150180030412182814C0000C1430300F0
:1093FC00304014945C4103004D4C5D53C14D03004F
:10940C002C516C4CB0121C935C4103002C516C4CD5
:10941C000C93F0230343215230417F4011005B43F6
:10942C000D9C08284F430B930E200E9301240F4CD8
:10943C000C4F30413F530F93F8270D93F33B0D5DC9
:10944C000B5B30402C940C9D02280C8D0FDB12C34F
:10945C000B1012C30D10304032940A120F4C0E4DEB
:10946C003B4026940C931A344C430C8F0F4C0D93A9
:10947C000D345A430D430D8E4E430C4F8B121A93E1
:10948C0003244D430D8C0C4D3A4130414E438B120D
:10949C0030408E944E438B12304094940D93FA3797
:1094AC004A43304080940A120C9313344E430E8C72
:1094BC000C4E5A430D9303344E430E8D0D4E5E43AA
:1094CC00B01226940A9303244D430D8C0C4D3A4153
:1094DC0030414A433040C0944E43B0122694304140
:1094EC005E43B01226943041344135413641374108
:1094FC00384139413A41304112C30C1012C30C109F
:10950C0012C30C1012C30C1012C30C1012C30C108B
:10951C0012C30C1012C30C1012C30C1012C30C107B
:10952C0012C30C1012C30C1012C30C1012C30C106B
:10953C0012C30C1030413D5312C30C100D93FB237E
:10954C00304112C30D100C1012C30D100C1012C3AD
:10955C000D100C1012C30D100C1012C30D100C10AA
:10956C0012C30D100C1012C30D100C1012C30D10E1
:10957C000C1012C30D100C1012C30D100C1012C3D2
:10958C000D100C1012C30D100C1012C30D100C107A
:10959C0012C30D100C1012C30D100C1030413E53A1
:1095AC0012C30D100C100E93FA233041021232C26A
:1095BC000343824C3001824D38011C423A010013A6
:1095CC00021232C20343824C3001824E3801824C6B
:1095DC0034011C423A0192423C013A01824F38015B
:1095EC00824D3401824E38011D423A0100130A1299
:1095FC000A4C4D43B01218961C4268801D4C140046
:10960C000D9301248D120C4AB012C6970A1209123E
:10961C000812071206120512041231800C00814C3C
:10962C000800054D1E4268803E502400814E0A0001
:10963C001E4268801A4E240017410A003640000072
:10964C000A93042031500C003040F494144A440026
:10965C00194A0200084938530959089314340693DF
:10966C00F1272C4A8A9302006B200C936924874CB7
:10967C000000049302240C4486120C4A86122C47D8
:10968C000A4C30404C9605930C2404930520385317
:10969C003950FEFF304066960C440C598C953E00B8
:1096AC00F6230C4A0C591F4C02001D4A02003D5374
:1096BC000D982C208A4802000F93E927914A02004A
:1096CC000600049319245C430D48814F0000B0122E
:1096DC0076970D4C3DB000800E7E3EE3814D02002E
:1096EC00814E04001B4480000BFC1D4482000DFEC7
:1096FC000DDB2F410D930E208F129A910600020064
:10970C009723879A0000C32730403C968C43020075
:10971C003040C4960D440D591D4DFEFF1CF48400C1
:10972C001B4486001BF104000CDB0C9305201C4130
:10973C0008008F12304006970C4D8F123040069760
:10974C00074A30408C960C5C0C5C0C5C0C5C0C5C22
:10975C000C5C0C5C0C5C0C5C0C5C0C5C0C5C0C5CBD
:10976C000C5C0C5C30413D530C5C0D93FC23304184
:10977C000C5C0D6D0C5C0D6D0C5C0D6D0C5C0D6D55
:10978C000C5C0D6D0C5C0D6D0C5C0D6D0C5C0D6D45
:10979C000C5C0D6D0C5C0D6D0C5C0D6D0C5C0D6D35
:1097AC000C5C0D6D0C5C0D6D0C5C0D6D30413E5305
:1097BC000C5C0D6D0E93FB2330413040C6970D9C15
:1097CC000A280F4C0E5C0E9F0D24EF4D00001F530A
:1097DC001D533040D2970F4D0F5E0C9FF22F3E530E
:1097EC003E93012030410B4C0B5E0F4D0F5EEB4F47
:1097FC0000003040EA970F4C0E5C0F9E0120304168
:10980C00CF4D00001F53304006980A123A40748026
:10981C002C4A3C9302203A4130418C123A50FEFFC4
:10982C0030401C98B0124883B0121698B012848243
:10983C00B01276823041B0129282B012FA8230416C
:10984C00010001000000000000000000000000000A
:10985C00000000006A800000000000000000000012
:10986C0000000000000000000000000000000000EC
:10987C0000000000000000000000000000000000DC
:10988C0000000000000000000000000000000000CC
:10989C0000000000000000000000000000000000BC
:1098AC0000000000000000000000000000000000AC
:0C98BC00000000000000000000000000A0
:02FFE800D48FB4
:02FFF000DA92A3
:02FFFE007C8005
:040000030000807CFD
:00000001FF
