:108000000000000000000000FFFF0000FFFF000074
:10801000314000803C4014400D433E401200B012FD
:1080200050833C4000403D409C830D9C04243E40D6
:108030001400B0121883B01280830C43B012C681B2
:108040003440048035400480264330406C80344006
:10805000048035400480264330406C8034400480E6
:10806000354004803640FEFF30406C800594052486
:1080700027440456A7121040F4FF304130413041EC
:108080003C409C833C909C8307243D4000000D9322
:1080900003243C409C838D1230410A123A409C8359
:1080A0003A809C830A110C4AB01264820C5A0D4C1F
:1080B0000D110D9307243E4000000E9303243C4015
:1080C0009C838E123A4130410A120912C293144025
:1080D00017203A400E803A800C800A113A533940FA
:1080E0000C801C4216400C9A0D28B01280803D4036
:1080F00000000D9303243C4000808D12D2431440B5
:1081000030405E821C53824C16400C5C0C592C4C47
:108110008C123040E2803E4000000E9305243D402A
:1081200018403C4000808E12B0129A8030410D12EF
:108130000C127C409000FC400F0000003D400060AD
:108140003C4002402D4D8C4D00003D4002603C40C3
:1081500004402D4D8C4D00003D4004603C400640E5
:108160002D4D8C4D00003D4006603C4008402D4D9B
:108170008C4D00003D4008603C400A402D4D8C4D28
:1081800000003D400A603C400C402D4D8C4D0000ED
:108190003D400C603C400E402D4D8C4D00003D405C
:1081A0000E603C4010402D4D8C4D00007C409000F6
:1081B000FC40F0FF00003C4090019C430000034362
:1081C0003C413D41001332D203433C4090019C436B
:1081D00000001C4202400C930324B240AA0002405B
:1081E0001C4204400C930324B240BB0004401C42D8
:1081F00006400C930324B240CC0006401C420840C9
:108200000C930324B240DD0008401C420A400C934A
:108210000324B240EE000A401C420C400C9303249D
:10822000B240FF000C401C420E400C930324B240AD
:1082300055000E401C4210400C930324B240BB007A
:1082400010401C4212400C930324B240AA0012407A
:10825000304050823441354136413741384139410F
:108260003A41304112C30C1012C30C1012C30C104F
:1082700012C30C1012C30C1012C30C1012C30C103A
:1082800012C30C1012C30C1012C30C1012C30C102A
:1082900012C30C1012C30C1012C30C1012C30C101A
:1082A00030413D5312C30C100D93FB23304112C3D8
:1082B0000D100C1012C30D100C1012C30D100C1069
:1082C00012C30D100C1012C30D100C1012C30D10A0
:1082D0000C1012C30D100C1012C30D100C1012C391
:1082E0000D100C1012C30D100C1012C30D100C1039
:1082F00012C30D100C1012C30D100C1012C30D1070
:108300000C1012C30D100C1030413E5312C30D104F
:108310000C100E93FA2330410D9C0A280F4C0E5C72
:108320000E9F0D24EF4D00001F531D53304020833E
:108330000F4D0F5E0C9FF22F3E533E9301203041B4
:108340000B4C0B5E0F4D0F5EEB4F0000304038833F
:108350000F4C0E5C0F9E01203041CF4D00001F538B
:108360003040548330410A123A4008802C4A3C93F2
:1083700002203A4130418C123A50FEFF30406C836B
:10838000B0121681B0126683B0124E80B0124080D7
:0C8390003041B0125C80B012C880304157
:10839C0000000100070007000100010001000100BE
:0483AC0001000100CB
:02FFE8002E8168
:02FFFE00108071
:040000030000801069
:00000001FF
