:108000000000000000000000FFFF0000FFFF000074
:10801000314000803C4012400D433E401200B012FF
:10802000C4823C4000403D4010830D9C04243E40EF
:108030001200B0128C82B012F4820C43B01248814C
:108040003440048035400480264330406C80344006
:10805000048035400480264330406C8034400480E6
:10806000354004803640FEFF30406C800594052486
:1080700027440456A7121040F4FF304130413041EC
:108080003C4010833C90108307243D4000000D933A
:1080900003243C4010838D1230410A123A40108371
:1080A0003A8010830A110C4AB012D8810C5A0D4C38
:1080B0000D110D9307243E4000000E9303243C4015
:1080C00010838E123A4130410A120912C2931240B3
:1080D00017203A400E803A800C800A113A533940FA
:1080E0000C801C4214400C9A0D28B01280803D4038
:1080F00000000D9303243C4000808D12D2431240B7
:108100003040D2811C53824C14400C5C0C592C4CD6
:108110008C123040E2803E4000000E9305243D402A
:1081200016403C4000808E12B0129A8030410C12F2
:108130003C4090018C4300007C409000FC400F00CC
:10814000000003433C41001332D203433C40900102
:108150009C4300001C4202400C930324B240F901EE
:1081600002401C4204400C930324B240F901044035
:108170001C4206400C930324B240F90106401C4205
:1081800008400C930324B240F90108401C420A4005
:108190000C930324B240F9010A401C420C400C939A
:1081A0000324B240F9010C401C420E400C930324FE
:1081B000B240F9010E401C4210400C930324B2401F
:1081C000F90110403040C4813441354136413741D6
:1081D000384139413A41304112C30C1012C30C10DE
:1081E00012C30C1012C30C1012C30C1012C30C10CB
:1081F00012C30C1012C30C1012C30C1012C30C10BB
:1082000012C30C1012C30C1012C30C1012C30C10AA
:1082100012C30C1030413D5312C30C100D93FB23BD
:10822000304112C30D100C1012C30D100C1012C3EC
:108230000D100C1012C30D100C1012C30D100C10E9
:1082400012C30D100C1012C30D100C1012C30D1020
:108250000C1012C30D100C1012C30D100C1012C311
:108260000D100C1012C30D100C1012C30D100C10B9
:1082700012C30D100C1012C30D100C1030413E53E0
:1082800012C30D100C100E93FA2330410D9C0A28D6
:108290000F4C0E5C0E9F0D24EF4D00001F531D531D
:1082A000304094820F4D0F5E0C9FF22F3E533E9351
:1082B000012030410B4C0B5E0F4D0F5EEB4F000069
:1082C0003040AC820F4C0E5C0F9E01203041CF4DF0
:1082D00000001F533040C88230410A123A400880E3
:1082E0002C4A3C9302203A4130418C123A50FEFF16
:1082F0003040E082B0121681B012DA82B0124E80A5
:10830000B01240803041B0125C80B012C880304161
:10831000000001000700070001000100010001004A
:0283200001005A
:02FFE8002E8168
:02FFFE00108071
:040000030000801069
:00000001FF
