:108000000000000000000000FFFF0000FFFF000074
:10801000314000803C401E400D433E401200B012F3
:10802000DC833C4000403D4028840D9C04243E40BD
:108030001E00B012A483B0120C840C43B01248810D
:108040003440048035400480264330406C80344006
:10805000048035400480264330406C8034400480E6
:10806000354004803640FEFF30406C800594052486
:1080700027440456A7121040F4FF304130413041EC
:108080003C4028843C90288407243D4000000D9308
:1080900003243C4028848D1230410A123A4028843F
:1080A0003A8028840A110C4AB012F0820C5A0D4C06
:1080B0000D110D9307243E4000000E9303243C4015
:1080C00028848E123A4130410A120912C2931E408E
:1080D00017203A400E803A800C800A113A533940FA
:1080E0000C801C4220400C9A0D28B01280803D402C
:1080F00000000D9303243C4000808D12D2431E40AB
:108100003040EA821C53824C20400C5C0C592C4CB1
:108110008C123040E2803E4000000E9305243D402A
:1081200022403C4000808E12B0129A8030410C12E6
:108130007C409000FC40F0FF00003C4090019C43DC
:10814000000003433C41001332D203433C40900102
:108150009C4300007C409000FC400F000000F24077
:1081600003000340B240034006401C420640824CDC
:108170000A403C400340FC40060000005C420340D3
:108180007C90060005207C409000FC401F00000011
:108190001C4208400C93022492430840F240050020
:1081A00002401D4216401E4218400C4D0CDE0C933E
:1081B00010201D421A401E421C400C4D0CDE0C9338
:1081C00004209243164082431840A2431A4082433F
:1081D0001C401C4216401D4218400E4C3E900300AD
:1081E00006200C4D0C930320B240BEBE08401C423A
:1081F00008403C90BEBE05207C409000FC405F00E3
:1082000000001C4210401D421240824C08401C429B
:108210000C401D420E40824C1040824D12401C42C8
:1082200010401D4212400E4C2E9308200C4D0C9312
:108230000520B2400300104082431240F240060085
:1082400003405C4203407C9006000320F240100093
:1082500003401C4208400C93022492430840A2436E
:1082600008401D420C401E420E400C4D0CDE0C938B
:108270000224A24308405C4202400C930324B24013
:10828000030008401D421A401E421C400C4D0CDEEB
:108290000C930320B240030008405C4202400C9360
:1082A0000A241D420C401E420E400C4D0CDE0C9365
:1082B0000224A24308401C421440824C08401C4245
:1082C00014400C930324B240BEBE08405C420440FC
:1082D000C24C02403C4020018C4300003040DC8214
:1082E0003441354136413741384139413A413041D5
:1082F00012C30C1012C30C1012C30C1012C30C10BA
:1083000012C30C1012C30C1012C30C1012C30C10A9
:1083100012C30C1012C30C1012C30C1012C30C1099
:1083200012C30C1012C30C1012C30C1030413D5379
:1083300012C30C100D93FB23304112C30D100C100F
:1083400012C30D100C1012C30D100C1012C30D101F
:108350000C1012C30D100C1012C30D100C1012C310
:108360000D100C1012C30D100C1012C30D100C10B8
:1083700012C30D100C1012C30D100C1012C30D10EF
:108380000C1012C30D100C1012C30D100C1012C3E0
:108390000D100C1030413E5312C30D100C100E93F3
:1083A000FA2330410D9C0A280F4C0E5C0E9F0D24C1
:1083B000EF4D00001F531D533040AC830F4D0F5E37
:1083C0000C9FF22F3E533E93012030410B4C0B5E2D
:1083D0000F4D0F5EEB4F00003040C4830F4C0E5C1E
:1083E0000F9E01203041CF4D00001F533040E083ED
:1083F00030410A123A4008802C4A3C9302203A410C
:1084000030418C123A50FEFF3040F883B012168192
:10841000B012F283B0124E80B01240803041B012E0
:088420005C80B012C8803041FD
:108428000000010202000000020002000200000039
:0E843800020000000200000000000000000032
:02FFE8002E8168
:02FFFE00108071
:040000030000801069
:00000001FF
